:100B0D004B544D54004E484F4D20404040400054F2
:100B1D00494D453A2000444154453A2000414C414D
:040B2D00524D200005
:100B310001367E013200013500012B000128000140
:0F0B41002C00012300012F0001370102380000B2
:100AC1008F428E418D408C3FE47B19FAF9F8120375
:100AD100FC8F428E418D408C3F783F74FF12044D54
:070AE100EC4D4E4F70F322B3
:10000300C2B0AF36120C59120B8F7D017C007F01F9
:100013007E00120A1D7BFF7A0B790D120AE87D021E
:100023007C007F017E00120A1D7BFF7A0B7912127E
:100033000AE87F0A7E001209C3120B73120BE42035
:10004300960FE52870047F0180027F008F28120B32
:1000530073E52860030201CCAF36120C59750B000F
:10006300750C00750D24750E00750F007510217B3E
:10007300007A00793312046B7D017C007F017E00DE
:10008300120A1D7BFF7A0B791C120AE8C3E534942C
:100093000AE533940050057F30120989AF34AE333B
:1000A3001206AC7F3A120989C3E525940AE5249424
:1000B3000050057F30120989AF25AE241206AC7FAC
:1000C3003A120989C3E522940AE521940050057F79
:1000D30030120989AF22AE211206AC750B00750CE4
:1000E30000750D26750E00750F007510297511002A
:1000F30075120075132D7B007A00793012059E7DF1
:10010300027C007F017E00120A1D7BFF7A0B79239C
:10011300120AE8C3E527940AE526940050057F30C8
:10012300120989AF27AE261206AC7F2F120989C3A5
:10013300E52A940AE529940050057F30120989AF16
:100143002AAE291206AC7F2F120989E52E24D0FF8F
:10015300E52D3407FE1206ACE53265347002E53353
:100163006003020042E53565257002E52460030261
:100173000042E52B65227002E5216003020042D2B2
:10018300B07FFAFE1209C3C2B07FFA7E001209C320
:10019300D2B07FFA7E001209C3C2B07FFA7E00128A
:1001A30009C3D2B07FFA7E001209C3C2B07FFA7EC0
:1001B300001209C3D2B07FFA7E001209C3C2B07F16
:1001C300FA7E001209C30200427D017C007F017E9A
:1001D30000120A1D7BFF7A0B792A120AE87D027C42
:1001E300007F017E00120A1DE532C3940A50057F89
:1001F30030120989AF327E001206AC7F3A120989A8
:10020300E535C3940A50057F30120989AF357E0066
:100213001206AC7F3A120989E52BC3940A50057F75
:1002230030120989AF2B7E001206AC2091020537EC
:10023300209436E53775F00384AFF0BF010E053225
:10024300E532D394174022E4F532801DBF020E0538
:1002530035E535D3943B4011E4F535800C052BE5AA
:100263002BD3943B4003E4F52B309703020042E584
:100273003775F00384AFF0BF010FE53270067532B6
:10028300170200421532020042BF020FE535700625
:1002930075353B0200421535020042E52B700675A9
:0A02A3002B3B020042152B02004223
:100BF60020202020202020202020202020202020EF
:010C060000ED
:030B5000011D087C
:0D0C0700D2870000D2860000C287000022C4
:090C2D00C286C287D286D287225A
:030C59008F1E22C9
:080BC000120C07AF1E120A45DA
:0A0BC800C286D287D2862087FD2264
:020A4500AD07FB
:100A4700E4FCC2867E007480A804088006CEA2E774
:100A570013CE13D8F8FFEDFBEF5B6003D38001C320
:080A67009287D2860CBC08DA6C
:010A6F002264
:100A7000EFC454F0F50AEF54F0F50B120BC0E50B80
:100A80001209B6E50B44081209B8E50A1209B6E5E1
:090A90000A44081209B8020C2DF9
:100973007D0AAE08AF097C0012037C7C007D0A125D
:06098300037CED2430FFAF
:10098900EFC454F0F50BEF54F0F50C120BC0E50C65
:10099900440D1209B8E50C44091209B8E50B440DD8
:0D09A9001209B8E50B44091209B8020C2D23
:100AE8008B088A09890AAB08AA09A90A1202AD600B
:100AF80013050AE50A7002050914F91202ADFF127E
:050B0800098980E222D2
:0D09B600440CFF120A45120BC87F057E009D
:1009C300D3EF9400EE9400401A7D797C00ED1D7006
:1009D300011CED4C70F7000000000000EF1F70E0F9
:0309E3001E80DD96
:0109E60022EE
:100B8F007F02120A707F28120A707F0C120A707F80
:090B9F0006120A707F01020A70BF
:060A17007C007F017E005F
:100A1D00ED64014C7010ED247EFDE43CCD2FF50905
:100A2D00ED3EF508800DEF243FFFE43EF508EF4461
:080A3D0080F509AF09020A70FF
:1006AC008E088F09D3E5099409E50864809480507D
:1006BC0004EF020776D3E5099409E5086480948079
:1006CC00402DE5099464E508648094805021AE08BF
:1006DC00AF097C007D0A12037CEF2430FF120989DC
:1006EC00AE08AF097C007D0A12037CED020776D3BD
:1006FC00E5099463E50864809480402FE50994E84B
:10070C00E508648094835023AE08AF097C007D64B7
:10071C0012037CEF2430FF120989120973AE08AF63
:10072C00097C007D0A12037CED803FD3E50994E738
:10073C00E508648094834038E5099410E5086480EA
:10074C0094A7502CAE08AF097C037DE812037CEF14
:10075C002430FF1209897D64120975120973AE08E1
:10076C00AF097C007D0A12037CED2430FF1209894D
:01077C00225A
:100B73007D01120A177BFF7A0B79F6120AE87D02D0
:0C0B8300120A177BFF7A0B79F6020AE8D1
:070C3600D2A1120C3DD2A077
:010C3D002294
:050C5400D2A0D2A12294
:0D0C1400D2A0120C3DC2A1120C3DC2A022C4
:0B0C2100120C36A2A19201C2A0A20199
:010C2C0022A5
:070B5400AD07120C147FD065
:100B5B00E4FEEF3392A1D2A0120C3DC2A0EF25E030
:080B6B00FF0EBE08ED020C2193
:080C3E00C2A1120C38C2A02271
:060C4E00120C36C2A022C8
:080A9900E48FF01203DDD2012D
:100AA100E4FFFE120C36EF25E0FF30A103430701FE
:0F0AB100C2A00EBE08ED300103020C3E120C4E27
:010AC0002213
:080C4600C2A1120C38D2A12258
:100BD200AC07120B56AF04120B5BAF05120B5B0294
:020BE2000C46BF
:100BA800120B54AF05120B5B120C147FD1120B5BA6
:080BB800C201120AA1020C4661
:100BE400120C54E4FF120BA8AD0753057FE4FF0277
:020BF4000BD222
:06046B008B088A09890AD2
:10047100120B56E4FF120B5B120C147FD1120B5BB3
:10048100D201120AA1AB077A00D201120AA1751397
:10049100008F14C201120AA17511008F12120C46AD
:1004A10053037FEAC4F854F0C868FEEBC4540F4804
:1004B100FF7C007D0A120315EB540F2FFFEC3EABBE
:1004C1000EAA0FA9108FF01203DD53147F751300CC
:1004D100E513C4F854F0C868FEE514C4540F48FF8E
:1004E100120315E514540F2FFFEC3EAB0BAA0CA918
:1004F1000D8FF01203DDE51230E64AAB15AA16A9FD
:1005010017E475F00C1203DDE51230E504D200802A
:1005110002C20053121F751100E511C4F854F0C84E
:1005210068FEE512C4540F48FF7C007D0A120315D2
:10053100E512540F2FFFEC3EAB08AA09A90A8FF070
:100541001203DD8055AB15AA16A917E475F0181230
:1005510003DD53123F751100E511C4F854F0C8686A
:10056100FEE512C4540F48FF7C007D0A120315E515
:1005710012540F2FFFEC3EAB08AA09A90A8FF01203
:1005810003DDAB08AA09A90A1203B2C3940CE5F072
:0C05910094005004C2008002D200A200BE
:01059D00223B
:10077D008E438F448C458D467C007D0AAF03AE02BF
:10078D00120327EFC4F8540FC868F582EEC454F075
:10079D0048F5837C007D0AAF03AE02120327EC45BA
:1007AD0083FAED4582FBAE45AF467C007D0A120310
:1007BD0027EFC4F8540FC868F582EEC454F048F51D
:1007CD0083AE45AF467C007D0A120327EC4583F5C9
:1007DD0045ED4582F546AE43AF447C007D0A1203DC
:1007ED0027EFC4F8540FC868F582EEC454F048F5ED
:1007FD0083AE43AF447C007D0A120327EC4583F59D
:10080D0043ED4582F544120B56E4FF120B5BAF032B
:10081D00120B5BAF46120B5BAF44120B5B020C4627
:10059E008B088A09890A120B567F03120B5B120C09
:1005AE00147FD1120B5BD201120AA1AB08AA09A9C2
:1005BE000A120A99AB0BAA0CA90D120A99AB0EAA34
:1005CE000FA910E48FF01203DDC201120AA1AB11C4
:1005DE00AA12A913E48FF01203DD120C46AB08AA7F
:1005EE0009A90A1203B25407FFE48FF01203DDAB20
:1005FE000BAA0CA90D1203B2543FFFE48FF01203A5
:10060E00DDAB0BAA0CA90D1203B2FBAAF0EAC4F8DB
:10061E0054F0C868FEEBC4540F48FF7C007D0A12EC
:10062E000315EB540F2FFFEC3EAB0BAA0C8FF01201
:10063E0003DDAB0EAA0FA9101203B2541FFFE48FF5
:10064E00F01203DDAB0EAA0FA9101203B2FBAAF033
:10065E00EAC4F854F0C868FEEBC4540F48FF120306
:10066E0015EB540F2FFFEC3EAB0EAA0F8FF01203BB
:10067E00DDAB11AA12A9131203B2FBAAF0EAC4F859
:10068E0054F0C868FEEBC4540F48FF120315EB5428
:0E069E000F2FFFEC3EAB11AA128FF00203DD0E
:1008B900AC07ED75F00A84C454F0FFED75F00A84B5
:1008C900E5F04FFDEB75F00A84C454F0FFEB75F0C9
:1008D9000A84E5F04FFBE54A75F00A84C454F0FF39
:1008E900E54A75F00A84E5F04FF54AECD3940140E6
:1008F90005EC940840047C018000120B567F03121A
:100909000B5BAF04120B5BAF05120B5BAF03120B52
:090919005BAF4A120B5B020C46B5
:0809E7008B198A1A891BAD0768
:1009EF00E4FC120B56AF05120B5BECC3951C5015B4
:1009FF00AB19AA1AA91B8C827583001202C6FF12AB
:080A0F000B5B0C80E5020C46B4
:060922008B3B8A3C893D7D
:10092800120B54AF05120B5B120C147FD1120B5B28
:10093800E4FDE53E14FFEDC39F5017D201120AA152
:10094800AB3BAA3CA93D8D82758300EF1202F30DE3
:1009580080E0C201120AA1AB3BAA3CA93DAE058EBC
:0B09680082758300EF1202F3020C46C0
:0300000002082DC6
:0C082D00787FE4F6D8FD75814A0208745B
:1002AD00BB010689828A83E0225002E722BBFE024F
:0902BD00E32289828A83E4932282
:1002C600BB010CE58229F582E5833AF583E02250ED
:1002D60006E92582F8E622BBFE06E92582F8E22237
:0D02E600E58229F582E5833AF583E4932251
:1002F300F8BB010DE58229F582E5833AF583E8F041
:10030300225006E92582C8F622BBFE05E92582C8EC
:02031300F222D4
:10031500EF8DF0A4A8F0CF8CF0A428CE8DF0A42EFC
:02032500FE22B6
:10032700BC000BBE0029EF8DF084FFADF022E4CCBA
:10033700F875F008EF2FFFEE33FEEC33FCEE9DEC83
:10034700984005FCEE9DFE0FD5F0E9E4CEFD22EDC9
:10035700F8F5F0EE8420D21CFEADF075F008EF2F13
:10036700FFED33FD4007985006D5F0F222C398FD04
:050377000FD5F0EA22A1
:10037C00C2D5EC30E709B2D5E4C39DFDE49CFCEE9C
:10038C0030E715B2D5E4C39FFFE49EFE120327C3EA
:10039C00E49DFDE49CFC800312032730D507C3E4E5
:0603AC009FFFE49EFE220B
:1003B200BB010A89828A83E0F5F0A3E02250068716
:1003C200F009E71922BBFE07E3F5F009E3192289D8
:0B03D200828A83E493F5F0740193220B
:1003DD00BB010A89828A83F0E5F0A3F0225006F76B
:0F03ED0009A7F01922BBFE06F3E5F009F3192268
:1003FC00E88FF0A4CC8BF0A42CFCE98EF0A42CFCA0
:10040C008AF0EDA42CFCEA8EF0A4CDA8F08BF0A41D
:10041C002DCC3825F0FDE98FF0A42CCD35F0FCEB7C
:10042C008EF0A4FEA9F0EB8FF0A4CFC5F02ECD3941
:0F043C00FEE43CFCEAA42DCE35F0FDE43CFC22AE
:10044B007401FF3395E0FEFDFC080808E6CF2FF69C
:10045B0018E6CE3EF618E6CD3DF618E6CC3CF62275
:10083900020003E493A3F8E493A34003F68001F2D2
:1008490008DFF48029E493A3F85407240CC8C333C0
:10085900C4540F4420C8834004F456800146F6DF8F
:10086900E4800B0102040810204080900B31E47EE3
:10087900019360BCA3FF543F30E509541FFEE49384
:10088900A360010ECF54C025E060A840B8E493A34B
:10089900FAE493A3F8E493A3C8C582C8CAC583CA76
:1008A900F0A3C8C582C8CAC583CADFE9DEE780BE2E
:010B530000A1
:00000001FF
